{
  "_format": "hh-sol-artifact-1",
  "contractName": "TipJar",
  "sourceName": "contracts/TipJar.sol",
  "abi": [
    {
      "inputs": [
        {
          "internalType": "address",
          "name": "_payout",
          "type": "address"
        }
      ],
      "stateMutability": "nonpayable",
      "type": "constructor"
    },
    {
      "anonymous": false,
      "inputs": [
        {
          "indexed": true,
          "internalType": "address",
          "name": "from",
          "type": "address"
        },
        {
          "indexed": false,
          "internalType": "uint256",
          "name": "amount",
          "type": "uint256"
        },
        {
          "indexed": false,
          "internalType": "string",
          "name": "currency",
          "type": "string"
        },
        {
          "indexed": false,
          "internalType": "string",
          "name": "note",
          "type": "string"
        }
      ],
      "name": "Tipped",
      "type": "event"
    },
    {
      "inputs": [],
      "name": "owner",
      "outputs": [
        {
          "internalType": "address",
          "name": "",
          "type": "address"
        }
      ],
      "stateMutability": "view",
      "type": "function"
    },
    {
      "inputs": [],
      "name": "payout",
      "outputs": [
        {
          "internalType": "address",
          "name": "",
          "type": "address"
        }
      ],
      "stateMutability": "view",
      "type": "function"
    },
    {
      "inputs": [
        {
          "internalType": "address",
          "name": "p",
          "type": "address"
        }
      ],
      "name": "setPayout",
      "outputs": [],
      "stateMutability": "nonpayable",
      "type": "function"
    },
    {
      "inputs": [
        {
          "internalType": "address",
          "name": "a",
          "type": "address"
        }
      ],
      "name": "setUSDC",
      "outputs": [],
      "stateMutability": "nonpayable",
      "type": "function"
    },
    {
      "inputs": [
        {
          "internalType": "string",
          "name": "note",
          "type": "string"
        }
      ],
      "name": "tipETH",
      "outputs": [],
      "stateMutability": "payable",
      "type": "function"
    },
    {
      "inputs": [
        {
          "internalType": "uint256",
          "name": "amount",
          "type": "uint256"
        },
        {
          "internalType": "string",
          "name": "note",
          "type": "string"
        }
      ],
      "name": "tipUSDC",
      "outputs": [],
      "stateMutability": "nonpayable",
      "type": "function"
    },
    {
      "inputs": [],
      "name": "usdc",
      "outputs": [
        {
          "internalType": "address",
          "name": "",
          "type": "address"
        }
      ],
      "stateMutability": "view",
      "type": "function"
    }
  ],
  "bytecode": "0x608060405234801561001057600080fd5b5060405161072d38038061072d83398101604081905261002f91610062565b60008054336001600160a01b031991821617909155600180549091166001600160a01b0392909216919091179055610092565b60006020828403121561007457600080fd5b81516001600160a01b038116811461008b57600080fd5b9392505050565b61068c806100a16000396000f3fe6080604052600436106100705760003560e01c80638da5cb5b1161004e5780638da5cb5b146100f3578063a3ff39b214610113578063b3e089a214610133578063e7c7713f1461015357600080fd5b80630f4a5db0146100755780633e413bee1461009757806363bd1d4a146100d3575b600080fd5b34801561008157600080fd5b506100956100903660046104db565b610166565b005b3480156100a357600080fd5b506002546100b7906001600160a01b031681565b6040516001600160a01b03909116815260200160405180910390f35b3480156100df57600080fd5b506001546100b7906001600160a01b031681565b3480156100ff57600080fd5b506000546100b7906001600160a01b031681565b34801561011f57600080fd5b5061009561012e366004610527565b6102b7565b34801561013f57600080fd5b5061009561014e366004610527565b61031f565b610095610161366004610557565b610387565b6002546001600160a01b03166101ae5760405162461bcd60e51b81526020600482015260086024820152672aa9a2219037b33360c11b60448201526064015b60405180910390fd5b6002546001546040516323b872dd60e01b81523360048201526001600160a01b039182166024820152604481018690529116906323b872dd906064016020604051808303816000875af1158015610209573d6000803e3d6000fd5b505050506040513d601f19601f8201168201806040525081019061022d9190610599565b61026d5760405162461bcd60e51b81526020600482015260116024820152701d1c985b9cd9995c919c9bdb4819985a5b607a1b60448201526064016101a5565b336001600160a01b03167f9ec47270110b1a65d8c5eea5586bfd6043b5574520dd9b5c00911c4426a4858b8484846040516102aa939291906105e4565b60405180910390a2505050565b6000546001600160a01b031633146102fd5760405162461bcd60e51b81526020600482015260096024820152683737ba1037bbb732b960b91b60448201526064016101a5565b600180546001600160a01b0319166001600160a01b0392909216919091179055565b6000546001600160a01b031633146103655760405162461bcd60e51b81526020600482015260096024820152683737ba1037bbb732b960b91b60448201526064016101a5565b600280546001600160a01b0319166001600160a01b0392909216919091179055565b600034116103c25760405162461bcd60e51b81526020600482015260086024820152676e6f2076616c756560c01b60448201526064016101a5565b6001546040516000916001600160a01b03169034908381818185875af1925050503d806000811461040f576040519150601f19603f3d011682016040523d82523d6000602084013e610414565b606091505b50509050806104555760405162461bcd60e51b815260206004820152600d60248201526c1d1c985b9cd9995c8819985a5b609a1b60448201526064016101a5565b336001600160a01b03167f9ec47270110b1a65d8c5eea5586bfd6043b5574520dd9b5c00911c4426a4858b3485856040516102aa93929190610622565b60008083601f8401126104a457600080fd5b50813567ffffffffffffffff8111156104bc57600080fd5b6020830191508360208285010111156104d457600080fd5b9250929050565b6000806000604084860312156104f057600080fd5b83359250602084013567ffffffffffffffff81111561050e57600080fd5b61051a86828701610492565b9497909650939450505050565b60006020828403121561053957600080fd5b81356001600160a01b038116811461055057600080fd5b9392505050565b6000806020838503121561056a57600080fd5b823567ffffffffffffffff81111561058157600080fd5b61058d85828601610492565b90969095509350505050565b6000602082840312156105ab57600080fd5b8151801515811461055057600080fd5b81835281816020850137506000828201602090810191909152601f909101601f19169091010190565b8381526060602082015260046060820152635553444360e01b608082015260a06040820152600061061960a0830184866105bb565b95945050505050565b83815260606020820152600360608201526208aa8960eb1b608082015260a06040820152600061061960a0830184866105bb56fea264697066735822122069a8de428a798df634ea346b88aa7dae28bffbb3edca9be58d7efeff95c0231964736f6c63430008180033",
  "linkReferences": {},
  "deployedLinkReferences": {}
}