{
  "_format": "hh-sol-artifact-1",
  "contractName": "TipJar",
  "sourceName": "contracts/TipJar.sol",
  "abi": [
    {
      "inputs": [
        {
          "internalType": "address",
          "name": "_payout",
          "type": "address"
        }
      ],
      "stateMutability": "nonpayable",
      "type": "constructor"
    },
    {
      "anonymous": false,
      "inputs": [
        {
          "indexed": true,
          "internalType": "address",
          "name": "from",
          "type": "address"
        },
        {
          "indexed": false,
          "internalType": "uint256",
          "name": "amount",
          "type": "uint256"
        },
        {
          "indexed": false,
          "internalType": "string",
          "name": "currency",
          "type": "string"
        },
        {
          "indexed": false,
          "internalType": "string",
          "name": "note",
          "type": "string"
        }
      ],
      "name": "Tipped",
      "type": "event"
    },
    {
      "inputs": [],
      "name": "owner",
      "outputs": [
        {
          "internalType": "address",
          "name": "",
          "type": "address"
        }
      ],
      "stateMutability": "view",
      "type": "function"
    },
    {
      "inputs": [],
      "name": "payout",
      "outputs": [
        {
          "internalType": "address",
          "name": "",
          "type": "address"
        }
      ],
      "stateMutability": "view",
      "type": "function"
    },
    {
      "inputs": [
        {
          "internalType": "address",
          "name": "p",
          "type": "address"
        }
      ],
      "name": "setPayout",
      "outputs": [],
      "stateMutability": "nonpayable",
      "type": "function"
    },
    {
      "inputs": [
        {
          "internalType": "address",
          "name": "a",
          "type": "address"
        }
      ],
      "name": "setUSDC",
      "outputs": [],
      "stateMutability": "nonpayable",
      "type": "function"
    },
    {
      "inputs": [
        {
          "internalType": "string",
          "name": "note",
          "type": "string"
        }
      ],
      "name": "tipETH",
      "outputs": [],
      "stateMutability": "payable",
      "type": "function"
    },
    {
      "inputs": [
        {
          "internalType": "uint256",
          "name": "amount",
          "type": "uint256"
        },
        {
          "internalType": "string",
          "name": "note",
          "type": "string"
        }
      ],
      "name": "tipUSDC",
      "outputs": [],
      "stateMutability": "nonpayable",
      "type": "function"
    },
    {
      "inputs": [],
      "name": "usdc",
      "outputs": [
        {
          "internalType": "address",
          "name": "",
          "type": "address"
        }
      ],
      "stateMutability": "view",
      "type": "function"
    }
  ],
  "bytecode": "0x608060405234801561001057600080fd5b50604051610f16380380610f168339818101604052810190610032919061011c565b336000806101000a81548173ffffffffffffffffffffffffffffffffffffffff021916908373ffffffffffffffffffffffffffffffffffffffff16021790555080600160006101000a81548173ffffffffffffffffffffffffffffffffffffffff021916908373ffffffffffffffffffffffffffffffffffffffff16021790555050610149565b600080fd5b600073ffffffffffffffffffffffffffffffffffffffff82169050919050565b60006100e9826100be565b9050919050565b6100f9816100de565b811461010457600080fd5b50565b600081519050610116816100f0565b92915050565b600060208284031215610132576101316100b9565b5b600061014084828501610107565b91505092915050565b610dbe806101586000396000f3fe6080604052600436106100705760003560e01c80638da5cb5b1161004e5780638da5cb5b146100f4578063a3ff39b21461011f578063b3e089a214610148578063e7c7713f1461017157610070565b80630f4a5db0146100755780633e413bee1461009e57806363bd1d4a146100c9575b600080fd5b34801561008157600080fd5b5061009c60048036038101906100979190610799565b61018d565b005b3480156100aa57600080fd5b506100b3610378565b6040516100c0919061083a565b60405180910390f35b3480156100d557600080fd5b506100de61039e565b6040516100eb919061083a565b60405180910390f35b34801561010057600080fd5b506101096103c4565b604051610116919061083a565b60405180910390f35b34801561012b57600080fd5b5061014660048036038101906101419190610881565b6103e8565b005b34801561015457600080fd5b5061016f600480360381019061016a9190610881565b6104ba565b005b61018b600480360381019061018691906108ae565b61058c565b005b600073ffffffffffffffffffffffffffffffffffffffff16600260009054906101000a900473ffffffffffffffffffffffffffffffffffffffff1673ffffffffffffffffffffffffffffffffffffffff160361021e576040517f08c379a000000000000000000000000000000000000000000000000000000000815260040161021590610958565b60405180910390fd5b600260009054906101000a900473ffffffffffffffffffffffffffffffffffffffff1673ffffffffffffffffffffffffffffffffffffffff166323b872dd33600160009054906101000a900473ffffffffffffffffffffffffffffffffffffffff16866040518463ffffffff1660e01b815260040161029f93929190610987565b6020604051808303816000875af11580156102be573d6000803e3d6000fd5b505050506040513d601f19601f820116820180604052508101906102e291906109f6565b610321576040517f08c379a000000000000000000000000000000000000000000000000000000000815260040161031890610a6f565b60405180910390fd5b3373ffffffffffffffffffffffffffffffffffffffff167f9ec47270110b1a65d8c5eea5586bfd6043b5574520dd9b5c00911c4426a4858b84848460405161036b93929190610b28565b60405180910390a2505050565b600260009054906101000a900473ffffffffffffffffffffffffffffffffffffffff1681565b600160009054906101000a900473ffffffffffffffffffffffffffffffffffffffff1681565b60008054906101000a900473ffffffffffffffffffffffffffffffffffffffff1681565b60008054906101000a900473ffffffffffffffffffffffffffffffffffffffff1673ffffffffffffffffffffffffffffffffffffffff163373ffffffffffffffffffffffffffffffffffffffff1614610476576040517f08c379a000000000000000000000000000000000000000000000000000000000815260040161046d90610bb9565b60405180910390fd5b80600160006101000a81548173ffffffffffffffffffffffffffffffffffffffff021916908373ffffffffffffffffffffffffffffffffffffffff16021790555050565b60008054906101000a900473ffffffffffffffffffffffffffffffffffffffff1673ffffffffffffffffffffffffffffffffffffffff163373ffffffffffffffffffffffffffffffffffffffff1614610548576040517f08c379a000000000000000000000000000000000000000000000000000000000815260040161053f90610bb9565b60405180910390fd5b80600260006101000a81548173ffffffffffffffffffffffffffffffffffffffff021916908373ffffffffffffffffffffffffffffffffffffffff16021790555050565b600034116105cf576040517f08c379a00000000000000000000000000000000000000000000000000000000081526004016105c690610c25565b60405180910390fd5b6000600160009054906101000a900473ffffffffffffffffffffffffffffffffffffffff1673ffffffffffffffffffffffffffffffffffffffff163460405161061790610c76565b60006040518083038185875af1925050503d8060008114610654576040519150601f19603f3d011682016040523d82523d6000602084013e610659565b606091505b505090508061069d576040517f08c379a000000000000000000000000000000000000000000000000000000000815260040161069490610cd7565b60405180910390fd5b3373ffffffffffffffffffffffffffffffffffffffff167f9ec47270110b1a65d8c5eea5586bfd6043b5574520dd9b5c00911c4426a4858b3485856040516106e793929190610d43565b60405180910390a2505050565b600080fd5b600080fd5b6000819050919050565b610711816106fe565b811461071c57600080fd5b50565b60008135905061072e81610708565b92915050565b600080fd5b600080fd5b600080fd5b60008083601f84011261075957610758610734565b5b8235905067ffffffffffffffff81111561077657610775610739565b5b6020830191508360018202830111156107925761079161073e565b5b9250929050565b6000806000604084860312156107b2576107b16106f4565b5b60006107c08682870161071f565b935050602084013567ffffffffffffffff8111156107e1576107e06106f9565b5b6107ed86828701610743565b92509250509250925092565b600073ffffffffffffffffffffffffffffffffffffffff82169050919050565b6000610824826107f9565b9050919050565b61083481610819565b82525050565b600060208201905061084f600083018461082b565b92915050565b61085e81610819565b811461086957600080fd5b50565b60008135905061087b81610855565b92915050565b600060208284031215610897576108966106f4565b5b60006108a58482850161086c565b91505092915050565b600080602083850312156108c5576108c46106f4565b5b600083013567ffffffffffffffff8111156108e3576108e26106f9565b5b6108ef85828601610743565b92509250509250929050565b600082825260208201905092915050565b7f55534443206f6666000000000000000000000000000000000000000000000000600082015250565b60006109426008836108fb565b915061094d8261090c565b602082019050919050565b6000602082019050818103600083015261097181610935565b9050919050565b610981816106fe565b82525050565b600060608201905061099c600083018661082b565b6109a9602083018561082b565b6109b66040830184610978565b949350505050565b60008115159050919050565b6109d3816109be565b81146109de57600080fd5b50565b6000815190506109f0816109ca565b92915050565b600060208284031215610a0c57610a0b6106f4565b5b6000610a1a848285016109e1565b91505092915050565b7f7472616e7366657246726f6d206661696c000000000000000000000000000000600082015250565b6000610a596011836108fb565b9150610a6482610a23565b602082019050919050565b60006020820190508181036000830152610a8881610a4c565b9050919050565b7f5553444300000000000000000000000000000000000000000000000000000000600082015250565b6000610ac56004836108fb565b9150610ad082610a8f565b602082019050919050565b82818337600083830152505050565b6000601f19601f8301169050919050565b6000610b0783856108fb565b9350610b14838584610adb565b610b1d83610aea565b840190509392505050565b6000606082019050610b3d6000830186610978565b8181036020830152610b4e81610ab8565b90508181036040830152610b63818486610afb565b9050949350505050565b7f6e6f74206f776e65720000000000000000000000000000000000000000000000600082015250565b6000610ba36009836108fb565b9150610bae82610b6d565b602082019050919050565b60006020820190508181036000830152610bd281610b96565b9050919050565b7f6e6f2076616c7565000000000000000000000000000000000000000000000000600082015250565b6000610c0f6008836108fb565b9150610c1a82610bd9565b602082019050919050565b60006020820190508181036000830152610c3e81610c02565b9050919050565b600081905092915050565b50565b6000610c60600083610c45565b9150610c6b82610c50565b600082019050919050565b6000610c8182610c53565b9150819050919050565b7f7472616e73666572206661696c00000000000000000000000000000000000000600082015250565b6000610cc1600d836108fb565b9150610ccc82610c8b565b602082019050919050565b60006020820190508181036000830152610cf081610cb4565b9050919050565b7f4554480000000000000000000000000000000000000000000000000000000000600082015250565b6000610d2d6003836108fb565b9150610d3882610cf7565b602082019050919050565b6000606082019050610d586000830186610978565b8181036020830152610d6981610d20565b90508181036040830152610d7e818486610afb565b905094935050505056fea2646970667358221220145be41fa3f02b52973c9456ea4a5e00934c6d5d3ec18a4de61e60704c52096864736f6c63430008180033",
  "linkReferences": {},
  "deployedLinkReferences": {}
}