{
  "_format": "hh-sol-artifact-1",
  "contractName": "MomentMint",
  "sourceName": "contracts/MomentMint.sol",
  "abi": [
    {
      "inputs": [
        {
          "internalType": "address",
          "name": "_payout",
          "type": "address"
        }
      ],
      "stateMutability": "nonpayable",
      "type": "constructor"
    },
    {
      "inputs": [
        {
          "internalType": "address",
          "name": "sender",
          "type": "address"
        },
        {
          "internalType": "uint256",
          "name": "tokenId",
          "type": "uint256"
        },
        {
          "internalType": "address",
          "name": "owner",
          "type": "address"
        }
      ],
      "name": "ERC721IncorrectOwner",
      "type": "error"
    },
    {
      "inputs": [
        {
          "internalType": "address",
          "name": "operator",
          "type": "address"
        },
        {
          "internalType": "uint256",
          "name": "tokenId",
          "type": "uint256"
        }
      ],
      "name": "ERC721InsufficientApproval",
      "type": "error"
    },
    {
      "inputs": [
        {
          "internalType": "address",
          "name": "approver",
          "type": "address"
        }
      ],
      "name": "ERC721InvalidApprover",
      "type": "error"
    },
    {
      "inputs": [
        {
          "internalType": "address",
          "name": "operator",
          "type": "address"
        }
      ],
      "name": "ERC721InvalidOperator",
      "type": "error"
    },
    {
      "inputs": [
        {
          "internalType": "address",
          "name": "owner",
          "type": "address"
        }
      ],
      "name": "ERC721InvalidOwner",
      "type": "error"
    },
    {
      "inputs": [
        {
          "internalType": "address",
          "name": "receiver",
          "type": "address"
        }
      ],
      "name": "ERC721InvalidReceiver",
      "type": "error"
    },
    {
      "inputs": [
        {
          "internalType": "address",
          "name": "sender",
          "type": "address"
        }
      ],
      "name": "ERC721InvalidSender",
      "type": "error"
    },
    {
      "inputs": [
        {
          "internalType": "uint256",
          "name": "tokenId",
          "type": "uint256"
        }
      ],
      "name": "ERC721NonexistentToken",
      "type": "error"
    },
    {
      "inputs": [
        {
          "internalType": "address",
          "name": "owner",
          "type": "address"
        }
      ],
      "name": "OwnableInvalidOwner",
      "type": "error"
    },
    {
      "inputs": [
        {
          "internalType": "address",
          "name": "account",
          "type": "address"
        }
      ],
      "name": "OwnableUnauthorizedAccount",
      "type": "error"
    },
    {
      "anonymous": false,
      "inputs": [
        {
          "indexed": true,
          "internalType": "address",
          "name": "owner",
          "type": "address"
        },
        {
          "indexed": true,
          "internalType": "address",
          "name": "approved",
          "type": "address"
        },
        {
          "indexed": true,
          "internalType": "uint256",
          "name": "tokenId",
          "type": "uint256"
        }
      ],
      "name": "Approval",
      "type": "event"
    },
    {
      "anonymous": false,
      "inputs": [
        {
          "indexed": true,
          "internalType": "address",
          "name": "owner",
          "type": "address"
        },
        {
          "indexed": true,
          "internalType": "address",
          "name": "operator",
          "type": "address"
        },
        {
          "indexed": false,
          "internalType": "bool",
          "name": "approved",
          "type": "bool"
        }
      ],
      "name": "ApprovalForAll",
      "type": "event"
    },
    {
      "anonymous": false,
      "inputs": [
        {
          "indexed": false,
          "internalType": "uint256",
          "name": "_fromTokenId",
          "type": "uint256"
        },
        {
          "indexed": false,
          "internalType": "uint256",
          "name": "_toTokenId",
          "type": "uint256"
        }
      ],
      "name": "BatchMetadataUpdate",
      "type": "event"
    },
    {
      "anonymous": false,
      "inputs": [
        {
          "indexed": false,
          "internalType": "uint256",
          "name": "_tokenId",
          "type": "uint256"
        }
      ],
      "name": "MetadataUpdate",
      "type": "event"
    },
    {
      "anonymous": false,
      "inputs": [
        {
          "indexed": true,
          "internalType": "address",
          "name": "previousOwner",
          "type": "address"
        },
        {
          "indexed": true,
          "internalType": "address",
          "name": "newOwner",
          "type": "address"
        }
      ],
      "name": "OwnershipTransferred",
      "type": "event"
    },
    {
      "anonymous": false,
      "inputs": [
        {
          "indexed": true,
          "internalType": "address",
          "name": "from",
          "type": "address"
        },
        {
          "indexed": true,
          "internalType": "address",
          "name": "to",
          "type": "address"
        },
        {
          "indexed": true,
          "internalType": "uint256",
          "name": "tokenId",
          "type": "uint256"
        }
      ],
      "name": "Transfer",
      "type": "event"
    },
    {
      "inputs": [
        {
          "internalType": "address",
          "name": "to",
          "type": "address"
        },
        {
          "internalType": "uint256",
          "name": "tokenId",
          "type": "uint256"
        }
      ],
      "name": "approve",
      "outputs": [],
      "stateMutability": "nonpayable",
      "type": "function"
    },
    {
      "inputs": [
        {
          "internalType": "address",
          "name": "owner",
          "type": "address"
        }
      ],
      "name": "balanceOf",
      "outputs": [
        {
          "internalType": "uint256",
          "name": "",
          "type": "uint256"
        }
      ],
      "stateMutability": "view",
      "type": "function"
    },
    {
      "inputs": [
        {
          "internalType": "uint256",
          "name": "tokenId",
          "type": "uint256"
        }
      ],
      "name": "getApproved",
      "outputs": [
        {
          "internalType": "address",
          "name": "",
          "type": "address"
        }
      ],
      "stateMutability": "view",
      "type": "function"
    },
    {
      "inputs": [
        {
          "internalType": "address",
          "name": "owner",
          "type": "address"
        },
        {
          "internalType": "address",
          "name": "operator",
          "type": "address"
        }
      ],
      "name": "isApprovedForAll",
      "outputs": [
        {
          "internalType": "bool",
          "name": "",
          "type": "bool"
        }
      ],
      "stateMutability": "view",
      "type": "function"
    },
    {
      "inputs": [
        {
          "internalType": "string",
          "name": "tokenURI",
          "type": "string"
        }
      ],
      "name": "mint",
      "outputs": [],
      "stateMutability": "payable",
      "type": "function"
    },
    {
      "inputs": [],
      "name": "mintPrice",
      "outputs": [
        {
          "internalType": "uint256",
          "name": "",
          "type": "uint256"
        }
      ],
      "stateMutability": "view",
      "type": "function"
    },
    {
      "inputs": [],
      "name": "name",
      "outputs": [
        {
          "internalType": "string",
          "name": "",
          "type": "string"
        }
      ],
      "stateMutability": "view",
      "type": "function"
    },
    {
      "inputs": [],
      "name": "nextId",
      "outputs": [
        {
          "internalType": "uint256",
          "name": "",
          "type": "uint256"
        }
      ],
      "stateMutability": "view",
      "type": "function"
    },
    {
      "inputs": [],
      "name": "owner",
      "outputs": [
        {
          "internalType": "address",
          "name": "",
          "type": "address"
        }
      ],
      "stateMutability": "view",
      "type": "function"
    },
    {
      "inputs": [
        {
          "internalType": "address",
          "name": "to",
          "type": "address"
        },
        {
          "internalType": "string",
          "name": "tokenURI",
          "type": "string"
        }
      ],
      "name": "ownerMint",
      "outputs": [],
      "stateMutability": "nonpayable",
      "type": "function"
    },
    {
      "inputs": [
        {
          "internalType": "uint256",
          "name": "tokenId",
          "type": "uint256"
        }
      ],
      "name": "ownerOf",
      "outputs": [
        {
          "internalType": "address",
          "name": "",
          "type": "address"
        }
      ],
      "stateMutability": "view",
      "type": "function"
    },
    {
      "inputs": [],
      "name": "payout",
      "outputs": [
        {
          "internalType": "address",
          "name": "",
          "type": "address"
        }
      ],
      "stateMutability": "view",
      "type": "function"
    },
    {
      "inputs": [],
      "name": "renounceOwnership",
      "outputs": [],
      "stateMutability": "nonpayable",
      "type": "function"
    },
    {
      "inputs": [
        {
          "internalType": "address",
          "name": "from",
          "type": "address"
        },
        {
          "internalType": "address",
          "name": "to",
          "type": "address"
        },
        {
          "internalType": "uint256",
          "name": "tokenId",
          "type": "uint256"
        }
      ],
      "name": "safeTransferFrom",
      "outputs": [],
      "stateMutability": "nonpayable",
      "type": "function"
    },
    {
      "inputs": [
        {
          "internalType": "address",
          "name": "from",
          "type": "address"
        },
        {
          "internalType": "address",
          "name": "to",
          "type": "address"
        },
        {
          "internalType": "uint256",
          "name": "tokenId",
          "type": "uint256"
        },
        {
          "internalType": "bytes",
          "name": "data",
          "type": "bytes"
        }
      ],
      "name": "safeTransferFrom",
      "outputs": [],
      "stateMutability": "nonpayable",
      "type": "function"
    },
    {
      "inputs": [
        {
          "internalType": "address",
          "name": "operator",
          "type": "address"
        },
        {
          "internalType": "bool",
          "name": "approved",
          "type": "bool"
        }
      ],
      "name": "setApprovalForAll",
      "outputs": [],
      "stateMutability": "nonpayable",
      "type": "function"
    },
    {
      "inputs": [
        {
          "internalType": "uint256",
          "name": "weiPrice",
          "type": "uint256"
        }
      ],
      "name": "setMintPrice",
      "outputs": [],
      "stateMutability": "nonpayable",
      "type": "function"
    },
    {
      "inputs": [
        {
          "internalType": "address",
          "name": "p",
          "type": "address"
        }
      ],
      "name": "setPayout",
      "outputs": [],
      "stateMutability": "nonpayable",
      "type": "function"
    },
    {
      "inputs": [
        {
          "internalType": "bytes4",
          "name": "interfaceId",
          "type": "bytes4"
        }
      ],
      "name": "supportsInterface",
      "outputs": [
        {
          "internalType": "bool",
          "name": "",
          "type": "bool"
        }
      ],
      "stateMutability": "view",
      "type": "function"
    },
    {
      "inputs": [],
      "name": "symbol",
      "outputs": [
        {
          "internalType": "string",
          "name": "",
          "type": "string"
        }
      ],
      "stateMutability": "view",
      "type": "function"
    },
    {
      "inputs": [
        {
          "internalType": "uint256",
          "name": "tokenId",
          "type": "uint256"
        }
      ],
      "name": "tokenURI",
      "outputs": [
        {
          "internalType": "string",
          "name": "",
          "type": "string"
        }
      ],
      "stateMutability": "view",
      "type": "function"
    },
    {
      "inputs": [
        {
          "internalType": "address",
          "name": "from",
          "type": "address"
        },
        {
          "internalType": "address",
          "name": "to",
          "type": "address"
        },
        {
          "internalType": "uint256",
          "name": "tokenId",
          "type": "uint256"
        }
      ],
      "name": "transferFrom",
      "outputs": [],
      "stateMutability": "nonpayable",
      "type": "function"
    },
    {
      "inputs": [
        {
          "internalType": "address",
          "name": "newOwner",
          "type": "address"
        }
      ],
      "name": "transferOwnership",
      "outputs": [],
      "stateMutability": "nonpayable",
      "type": "function"
    }
  ],
  "bytecode": "0x608060405260016008556601c6bf526340006009553480156200002157600080fd5b5060405162001a1a38038062001a1a833981016040819052620000449162000164565b3360405180604001604052806011815260200170109b1d59551d5899551588135bdb595b9d607a1b815250604051806040016040528060068152602001651353d351539560d21b81525081600090816200009f91906200023d565b506001620000ae82826200023d565b5050506001600160a01b038116620000e057604051631e4fbdf760e01b81526000600482015260240160405180910390fd5b620000eb8162000112565b50600a80546001600160a01b0319166001600160a01b039290921691909117905562000309565b600780546001600160a01b038381166001600160a01b0319831681179093556040519116919082907f8be0079c531659141344cd1fd0a4f28419497f9722a3daafe3b4186f6b6457e090600090a35050565b6000602082840312156200017757600080fd5b81516001600160a01b03811681146200018f57600080fd5b9392505050565b634e487b7160e01b600052604160045260246000fd5b600181811c90821680620001c157607f821691505b602082108103620001e257634e487b7160e01b600052602260045260246000fd5b50919050565b601f82111562000238576000816000526020600020601f850160051c81016020861015620002135750805b601f850160051c820191505b8181101562000234578281556001016200021f565b5050505b505050565b81516001600160401b0381111562000259576200025962000196565b62000271816200026a8454620001ac565b84620001e8565b602080601f831160018114620002a95760008415620002905750858301515b600019600386901b1c1916600185901b17855562000234565b600085815260208120601f198616915b82811015620002da57888601518255948401946001909101908401620002b9565b5085821015620002f95787850151600019600388901b60f8161c191681555b5050505050600190811b01905550565b61170180620003196000396000f3fe6080604052600436106101405760003560e01c806370a08231116100b6578063b88d4fde1161006f578063b88d4fde14610378578063c87b56dd14610398578063d85d3d27146103b8578063e985e9c5146103cb578063f2fde38b146103eb578063f4a0a5281461040b57600080fd5b806370a08231146102d0578063715018a6146102f05780638da5cb5b1461030557806395d89b4114610323578063a22cb46514610338578063a3ff39b21461035857600080fd5b806341d5b8031161010857806341d5b8031461021657806342842e0e1461023657806361b8ce8c146102565780636352211e1461027a57806363bd1d4a1461029a5780636817c76c146102ba57600080fd5b806301ffc9a71461014557806306fdde031461017a578063081812fc1461019c578063095ea7b3146101d457806323b872dd146101f6575b600080fd5b34801561015157600080fd5b50610165610160366004611189565b61042b565b60405190151581526020015b60405180910390f35b34801561018657600080fd5b5061018f610456565b60405161017191906111f6565b3480156101a857600080fd5b506101bc6101b7366004611209565b6104e8565b6040516001600160a01b039091168152602001610171565b3480156101e057600080fd5b506101f46101ef36600461123e565b610511565b005b34801561020257600080fd5b506101f4610211366004611268565b610520565b34801561022257600080fd5b506101f4610231366004611350565b6105b0565b34801561024257600080fd5b506101f4610251366004611268565b6105e8565b34801561026257600080fd5b5061026c60085481565b604051908152602001610171565b34801561028657600080fd5b506101bc610295366004611209565b610603565b3480156102a657600080fd5b50600a546101bc906001600160a01b031681565b3480156102c657600080fd5b5061026c60095481565b3480156102dc57600080fd5b5061026c6102eb36600461139e565b61060e565b3480156102fc57600080fd5b506101f4610656565b34801561031157600080fd5b506007546001600160a01b03166101bc565b34801561032f57600080fd5b5061018f61066a565b34801561034457600080fd5b506101f46103533660046113b9565b610679565b34801561036457600080fd5b506101f461037336600461139e565b610684565b34801561038457600080fd5b506101f46103933660046113f5565b6106ae565b3480156103a457600080fd5b5061018f6103b3366004611209565b6106c6565b6101f46103c6366004611471565b6107d7565b3480156103d757600080fd5b506101656103e63660046114a6565b61088e565b3480156103f757600080fd5b506101f461040636600461139e565b6108bc565b34801561041757600080fd5b506101f4610426366004611209565b6108fa565b60006001600160e01b03198216632483248360e11b1480610450575061045082610907565b92915050565b606060008054610465906114d9565b80601f0160208091040260200160405190810160405280929190818152602001828054610491906114d9565b80156104de5780601f106104b3576101008083540402835291602001916104de565b820191906000526020600020905b8154815290600101906020018083116104c157829003601f168201915b5050505050905090565b60006104f382610957565b506000828152600460205260409020546001600160a01b0316610450565b61051c828233610990565b5050565b6001600160a01b03821661054f57604051633250574960e11b8152600060048201526024015b60405180910390fd5b600061055c83833361099d565b9050836001600160a01b0316816001600160a01b0316146105aa576040516364283d7b60e01b81526001600160a01b0380861660048301526024820184905282166044820152606401610546565b50505050565b6105b8610a96565b60088054600091826105c983611513565b9190505590506105d98382610ac3565b6105e38183610add565b505050565b6105e3838383604051806020016040528060008152506106ae565b600061045082610957565b60006001600160a01b03821661063a576040516322718ad960e21b815260006004820152602401610546565b506001600160a01b031660009081526003602052604090205490565b61065e610a96565b6106686000610b2d565b565b606060018054610465906114d9565b61051c338383610b7f565b61068c610a96565b600a80546001600160a01b0319166001600160a01b0392909216919091179055565b6106b9848484610520565b6105aa3385858585610c1e565b60606106d182610957565b50600082815260066020526040812080546106eb906114d9565b80601f0160208091040260200160405190810160405280929190818152602001828054610717906114d9565b80156107645780601f1061073957610100808354040283529160200191610764565b820191906000526020600020905b81548152906001019060200180831161074757829003601f168201915b50505050509050600061078260408051602081019091526000815290565b90508051600003610794575092915050565b8151156107c65780826040516020016107ae92919061153a565b60405160208183030381529060405292505050919050565b6107cf84610d49565b949350505050565b6009543410156108195760405162461bcd60e51b815260206004820152600d60248201526c506179206d696e74507269636560981b6044820152606401610546565b600880546000918261082a83611513565b91905055905061083a3382610ac3565b6108448183610add565b600a546001600160a01b03161561051c57600a546040516001600160a01b03909116904780156108fc02916000818181858888f193505050501580156105e3573d6000803e3d6000fd5b6001600160a01b03918216600090815260056020908152604080832093909416825291909152205460ff1690565b6108c4610a96565b6001600160a01b0381166108ee57604051631e4fbdf760e01b815260006004820152602401610546565b6108f781610b2d565b50565b610902610a96565b600955565b60006001600160e01b031982166380ac58cd60e01b148061093857506001600160e01b03198216635b5e139f60e01b145b8061045057506301ffc9a760e01b6001600160e01b0319831614610450565b6000818152600260205260408120546001600160a01b03168061045057604051637e27328960e01b815260048101849052602401610546565b6105e38383836001610dbe565b6000828152600260205260408120546001600160a01b03908116908316156109ca576109ca818486610ec4565b6001600160a01b03811615610a08576109e7600085600080610dbe565b6001600160a01b038116600090815260036020526040902080546000190190555b6001600160a01b03851615610a37576001600160a01b0385166000908152600360205260409020805460010190555b60008481526002602052604080822080546001600160a01b0319166001600160a01b0389811691821790925591518793918516917fddf252ad1be2c89b69c2b068fc378daa952ba7f163c4a11628f55a4df523b3ef91a4949350505050565b6007546001600160a01b031633146106685760405163118cdaa760e01b8152336004820152602401610546565b61051c828260405180602001604052806000815250610f28565b6000828152600660205260409020610af582826115b1565b506040518281527ff8e1a15aba9398e019f0b49df1a4fde98ee17ae345cb5f6b5e2c27f5033e8ce79060200160405180910390a15050565b600780546001600160a01b038381166001600160a01b0319831681179093556040519116919082907f8be0079c531659141344cd1fd0a4f28419497f9722a3daafe3b4186f6b6457e090600090a35050565b6001600160a01b038216610bb157604051630b61174360e31b81526001600160a01b0383166004820152602401610546565b6001600160a01b03838116600081815260056020908152604080832094871680845294825291829020805460ff191686151590811790915591519182527f17307eab39ab6107e8899845ad3d59bd9653f200f220920489ca2b5937696c31910160405180910390a3505050565b6001600160a01b0383163b15610d4257604051630a85bd0160e11b81526001600160a01b0384169063150b7a0290610c60908890889087908790600401611671565b6020604051808303816000875af1925050508015610c9b575060408051601f3d908101601f19168201909252610c98918101906116ae565b60015b610d04573d808015610cc9576040519150601f19603f3d011682016040523d82523d6000602084013e610cce565b606091505b508051600003610cfc57604051633250574960e11b81526001600160a01b0385166004820152602401610546565b805160208201fd5b6001600160e01b03198116630a85bd0160e11b14610d4057604051633250574960e11b81526001600160a01b0385166004820152602401610546565b505b5050505050565b6060610d5482610957565b506000610d6c60408051602081019091526000815290565b90506000815111610d8c5760405180602001604052806000815250610db7565b80610d9684610f40565b604051602001610da792919061153a565b6040516020818303038152906040525b9392505050565b8080610dd257506001600160a01b03821615155b15610e94576000610de284610957565b90506001600160a01b03831615801590610e0e5750826001600160a01b0316816001600160a01b031614155b8015610e215750610e1f818461088e565b155b15610e4a5760405163a9fbf51f60e01b81526001600160a01b0384166004820152602401610546565b8115610e925783856001600160a01b0316826001600160a01b03167f8c5be1e5ebec7d5bd14f71427d1e84f3dd0314c0f7b2291e5b200ac8c7c3b92560405160405180910390a45b505b5050600090815260046020526040902080546001600160a01b0319166001600160a01b0392909216919091179055565b610ecf838383610fd3565b6105e3576001600160a01b038316610efd57604051637e27328960e01b815260048101829052602401610546565b60405163177e802f60e01b81526001600160a01b038316600482015260248101829052604401610546565b610f328383611036565b6105e3336000858585610c1e565b60606000610f4d8361109b565b600101905060008167ffffffffffffffff811115610f6d57610f6d6112a4565b6040519080825280601f01601f191660200182016040528015610f97576020820181803683370190505b5090508181016020015b600019016f181899199a1a9b1b9c1cb0b131b232b360811b600a86061a8153600a8504945084610fa157509392505050565b60006001600160a01b038316158015906107cf5750826001600160a01b0316846001600160a01b0316148061100d575061100d848461088e565b806107cf5750506000908152600460205260409020546001600160a01b03908116911614919050565b6001600160a01b03821661106057604051633250574960e11b815260006004820152602401610546565b600061106e8383600061099d565b90506001600160a01b038116156105e3576040516339e3563760e11b815260006004820152602401610546565b60008072184f03e93ff9f4daa797ed6e38ed64bf6a1f0160401b83106110da5772184f03e93ff9f4daa797ed6e38ed64bf6a1f0160401b830492506040015b6d04ee2d6d415b85acef81000000008310611106576d04ee2d6d415b85acef8100000000830492506020015b662386f26fc10000831061112457662386f26fc10000830492506010015b6305f5e100831061113c576305f5e100830492506008015b612710831061115057612710830492506004015b60648310611162576064830492506002015b600a83106104505760010192915050565b6001600160e01b0319811681146108f757600080fd5b60006020828403121561119b57600080fd5b8135610db781611173565b60005b838110156111c15781810151838201526020016111a9565b50506000910152565b600081518084526111e28160208601602086016111a6565b601f01601f19169290920160200192915050565b602081526000610db760208301846111ca565b60006020828403121561121b57600080fd5b5035919050565b80356001600160a01b038116811461123957600080fd5b919050565b6000806040838503121561125157600080fd5b61125a83611222565b946020939093013593505050565b60008060006060848603121561127d57600080fd5b61128684611222565b925061129460208501611222565b9150604084013590509250925092565b634e487b7160e01b600052604160045260246000fd5b600067ffffffffffffffff808411156112d5576112d56112a4565b604051601f8501601f19908116603f011681019082821181831017156112fd576112fd6112a4565b8160405280935085815286868601111561131657600080fd5b858560208301376000602087830101525050509392505050565b600082601f83011261134157600080fd5b610db7838335602085016112ba565b6000806040838503121561136357600080fd5b61136c83611222565b9150602083013567ffffffffffffffff81111561138857600080fd5b61139485828601611330565b9150509250929050565b6000602082840312156113b057600080fd5b610db782611222565b600080604083850312156113cc57600080fd5b6113d583611222565b9150602083013580151581146113ea57600080fd5b809150509250929050565b6000806000806080858703121561140b57600080fd5b61141485611222565b935061142260208601611222565b925060408501359150606085013567ffffffffffffffff81111561144557600080fd5b8501601f8101871361145657600080fd5b611465878235602084016112ba565b91505092959194509250565b60006020828403121561148357600080fd5b813567ffffffffffffffff81111561149a57600080fd5b6107cf84828501611330565b600080604083850312156114b957600080fd5b6114c283611222565b91506114d060208401611222565b90509250929050565b600181811c908216806114ed57607f821691505b60208210810361150d57634e487b7160e01b600052602260045260246000fd5b50919050565b60006001820161153357634e487b7160e01b600052601160045260246000fd5b5060010190565b6000835161154c8184602088016111a6565b8351908301906115608183602088016111a6565b01949350505050565b601f8211156105e3576000816000526020600020601f850160051c810160208610156115925750805b601f850160051c820191505b81811015610d405782815560010161159e565b815167ffffffffffffffff8111156115cb576115cb6112a4565b6115df816115d984546114d9565b84611569565b602080601f83116001811461161457600084156115fc5750858301515b600019600386901b1c1916600185901b178555610d40565b600085815260208120601f198616915b8281101561164357888601518255948401946001909101908401611624565b50858210156116615787850151600019600388901b60f8161c191681555b5050505050600190811b01905550565b6001600160a01b03858116825284166020820152604081018390526080606082018190526000906116a4908301846111ca565b9695505050505050565b6000602082840312156116c057600080fd5b8151610db78161117356fea264697066735822122071a854be7e99efd715c1c6a5ee72405b47aa5369377d118e49a23be6794ceeda64736f6c63430008180033",
  "linkReferences": {},
  "deployedLinkReferences": {}
}