{
  "_format": "hh-sol-artifact-1",
  "contractName": "MomentMint",
  "sourceName": "contracts/MomentMint.sol",
  "abi": [
    {
      "inputs": [
        {
          "internalType": "address",
          "name": "_payout",
          "type": "address"
        }
      ],
      "stateMutability": "nonpayable",
      "type": "constructor"
    },
    {
      "inputs": [
        {
          "internalType": "address",
          "name": "sender",
          "type": "address"
        },
        {
          "internalType": "uint256",
          "name": "tokenId",
          "type": "uint256"
        },
        {
          "internalType": "address",
          "name": "owner",
          "type": "address"
        }
      ],
      "name": "ERC721IncorrectOwner",
      "type": "error"
    },
    {
      "inputs": [
        {
          "internalType": "address",
          "name": "operator",
          "type": "address"
        },
        {
          "internalType": "uint256",
          "name": "tokenId",
          "type": "uint256"
        }
      ],
      "name": "ERC721InsufficientApproval",
      "type": "error"
    },
    {
      "inputs": [
        {
          "internalType": "address",
          "name": "approver",
          "type": "address"
        }
      ],
      "name": "ERC721InvalidApprover",
      "type": "error"
    },
    {
      "inputs": [
        {
          "internalType": "address",
          "name": "operator",
          "type": "address"
        }
      ],
      "name": "ERC721InvalidOperator",
      "type": "error"
    },
    {
      "inputs": [
        {
          "internalType": "address",
          "name": "owner",
          "type": "address"
        }
      ],
      "name": "ERC721InvalidOwner",
      "type": "error"
    },
    {
      "inputs": [
        {
          "internalType": "address",
          "name": "receiver",
          "type": "address"
        }
      ],
      "name": "ERC721InvalidReceiver",
      "type": "error"
    },
    {
      "inputs": [
        {
          "internalType": "address",
          "name": "sender",
          "type": "address"
        }
      ],
      "name": "ERC721InvalidSender",
      "type": "error"
    },
    {
      "inputs": [
        {
          "internalType": "uint256",
          "name": "tokenId",
          "type": "uint256"
        }
      ],
      "name": "ERC721NonexistentToken",
      "type": "error"
    },
    {
      "inputs": [
        {
          "internalType": "address",
          "name": "owner",
          "type": "address"
        }
      ],
      "name": "OwnableInvalidOwner",
      "type": "error"
    },
    {
      "inputs": [
        {
          "internalType": "address",
          "name": "account",
          "type": "address"
        }
      ],
      "name": "OwnableUnauthorizedAccount",
      "type": "error"
    },
    {
      "anonymous": false,
      "inputs": [
        {
          "indexed": true,
          "internalType": "address",
          "name": "owner",
          "type": "address"
        },
        {
          "indexed": true,
          "internalType": "address",
          "name": "approved",
          "type": "address"
        },
        {
          "indexed": true,
          "internalType": "uint256",
          "name": "tokenId",
          "type": "uint256"
        }
      ],
      "name": "Approval",
      "type": "event"
    },
    {
      "anonymous": false,
      "inputs": [
        {
          "indexed": true,
          "internalType": "address",
          "name": "owner",
          "type": "address"
        },
        {
          "indexed": true,
          "internalType": "address",
          "name": "operator",
          "type": "address"
        },
        {
          "indexed": false,
          "internalType": "bool",
          "name": "approved",
          "type": "bool"
        }
      ],
      "name": "ApprovalForAll",
      "type": "event"
    },
    {
      "anonymous": false,
      "inputs": [
        {
          "indexed": false,
          "internalType": "uint256",
          "name": "_fromTokenId",
          "type": "uint256"
        },
        {
          "indexed": false,
          "internalType": "uint256",
          "name": "_toTokenId",
          "type": "uint256"
        }
      ],
      "name": "BatchMetadataUpdate",
      "type": "event"
    },
    {
      "anonymous": false,
      "inputs": [
        {
          "indexed": false,
          "internalType": "uint256",
          "name": "_tokenId",
          "type": "uint256"
        }
      ],
      "name": "MetadataUpdate",
      "type": "event"
    },
    {
      "anonymous": false,
      "inputs": [
        {
          "indexed": true,
          "internalType": "address",
          "name": "previousOwner",
          "type": "address"
        },
        {
          "indexed": true,
          "internalType": "address",
          "name": "newOwner",
          "type": "address"
        }
      ],
      "name": "OwnershipTransferred",
      "type": "event"
    },
    {
      "anonymous": false,
      "inputs": [
        {
          "indexed": true,
          "internalType": "address",
          "name": "from",
          "type": "address"
        },
        {
          "indexed": true,
          "internalType": "address",
          "name": "to",
          "type": "address"
        },
        {
          "indexed": true,
          "internalType": "uint256",
          "name": "tokenId",
          "type": "uint256"
        }
      ],
      "name": "Transfer",
      "type": "event"
    },
    {
      "inputs": [
        {
          "internalType": "address",
          "name": "to",
          "type": "address"
        },
        {
          "internalType": "uint256",
          "name": "tokenId",
          "type": "uint256"
        }
      ],
      "name": "approve",
      "outputs": [],
      "stateMutability": "nonpayable",
      "type": "function"
    },
    {
      "inputs": [
        {
          "internalType": "address",
          "name": "owner",
          "type": "address"
        }
      ],
      "name": "balanceOf",
      "outputs": [
        {
          "internalType": "uint256",
          "name": "",
          "type": "uint256"
        }
      ],
      "stateMutability": "view",
      "type": "function"
    },
    {
      "inputs": [
        {
          "internalType": "uint256",
          "name": "tokenId",
          "type": "uint256"
        }
      ],
      "name": "getApproved",
      "outputs": [
        {
          "internalType": "address",
          "name": "",
          "type": "address"
        }
      ],
      "stateMutability": "view",
      "type": "function"
    },
    {
      "inputs": [
        {
          "internalType": "address",
          "name": "owner",
          "type": "address"
        },
        {
          "internalType": "address",
          "name": "operator",
          "type": "address"
        }
      ],
      "name": "isApprovedForAll",
      "outputs": [
        {
          "internalType": "bool",
          "name": "",
          "type": "bool"
        }
      ],
      "stateMutability": "view",
      "type": "function"
    },
    {
      "inputs": [
        {
          "internalType": "string",
          "name": "tokenURI",
          "type": "string"
        }
      ],
      "name": "mint",
      "outputs": [],
      "stateMutability": "payable",
      "type": "function"
    },
    {
      "inputs": [],
      "name": "mintPrice",
      "outputs": [
        {
          "internalType": "uint256",
          "name": "",
          "type": "uint256"
        }
      ],
      "stateMutability": "view",
      "type": "function"
    },
    {
      "inputs": [],
      "name": "name",
      "outputs": [
        {
          "internalType": "string",
          "name": "",
          "type": "string"
        }
      ],
      "stateMutability": "view",
      "type": "function"
    },
    {
      "inputs": [],
      "name": "nextId",
      "outputs": [
        {
          "internalType": "uint256",
          "name": "",
          "type": "uint256"
        }
      ],
      "stateMutability": "view",
      "type": "function"
    },
    {
      "inputs": [],
      "name": "owner",
      "outputs": [
        {
          "internalType": "address",
          "name": "",
          "type": "address"
        }
      ],
      "stateMutability": "view",
      "type": "function"
    },
    {
      "inputs": [
        {
          "internalType": "address",
          "name": "to",
          "type": "address"
        },
        {
          "internalType": "string",
          "name": "tokenURI",
          "type": "string"
        }
      ],
      "name": "ownerMint",
      "outputs": [],
      "stateMutability": "nonpayable",
      "type": "function"
    },
    {
      "inputs": [
        {
          "internalType": "uint256",
          "name": "tokenId",
          "type": "uint256"
        }
      ],
      "name": "ownerOf",
      "outputs": [
        {
          "internalType": "address",
          "name": "",
          "type": "address"
        }
      ],
      "stateMutability": "view",
      "type": "function"
    },
    {
      "inputs": [],
      "name": "payout",
      "outputs": [
        {
          "internalType": "address",
          "name": "",
          "type": "address"
        }
      ],
      "stateMutability": "view",
      "type": "function"
    },
    {
      "inputs": [],
      "name": "renounceOwnership",
      "outputs": [],
      "stateMutability": "nonpayable",
      "type": "function"
    },
    {
      "inputs": [
        {
          "internalType": "address",
          "name": "from",
          "type": "address"
        },
        {
          "internalType": "address",
          "name": "to",
          "type": "address"
        },
        {
          "internalType": "uint256",
          "name": "tokenId",
          "type": "uint256"
        }
      ],
      "name": "safeTransferFrom",
      "outputs": [],
      "stateMutability": "nonpayable",
      "type": "function"
    },
    {
      "inputs": [
        {
          "internalType": "address",
          "name": "from",
          "type": "address"
        },
        {
          "internalType": "address",
          "name": "to",
          "type": "address"
        },
        {
          "internalType": "uint256",
          "name": "tokenId",
          "type": "uint256"
        },
        {
          "internalType": "bytes",
          "name": "data",
          "type": "bytes"
        }
      ],
      "name": "safeTransferFrom",
      "outputs": [],
      "stateMutability": "nonpayable",
      "type": "function"
    },
    {
      "inputs": [
        {
          "internalType": "address",
          "name": "operator",
          "type": "address"
        },
        {
          "internalType": "bool",
          "name": "approved",
          "type": "bool"
        }
      ],
      "name": "setApprovalForAll",
      "outputs": [],
      "stateMutability": "nonpayable",
      "type": "function"
    },
    {
      "inputs": [
        {
          "internalType": "uint256",
          "name": "weiPrice",
          "type": "uint256"
        }
      ],
      "name": "setMintPrice",
      "outputs": [],
      "stateMutability": "nonpayable",
      "type": "function"
    },
    {
      "inputs": [
        {
          "internalType": "address",
          "name": "p",
          "type": "address"
        }
      ],
      "name": "setPayout",
      "outputs": [],
      "stateMutability": "nonpayable",
      "type": "function"
    },
    {
      "inputs": [
        {
          "internalType": "bytes4",
          "name": "interfaceId",
          "type": "bytes4"
        }
      ],
      "name": "supportsInterface",
      "outputs": [
        {
          "internalType": "bool",
          "name": "",
          "type": "bool"
        }
      ],
      "stateMutability": "view",
      "type": "function"
    },
    {
      "inputs": [],
      "name": "symbol",
      "outputs": [
        {
          "internalType": "string",
          "name": "",
          "type": "string"
        }
      ],
      "stateMutability": "view",
      "type": "function"
    },
    {
      "inputs": [
        {
          "internalType": "uint256",
          "name": "tokenId",
          "type": "uint256"
        }
      ],
      "name": "tokenURI",
      "outputs": [
        {
          "internalType": "string",
          "name": "",
          "type": "string"
        }
      ],
      "stateMutability": "view",
      "type": "function"
    },
    {
      "inputs": [
        {
          "internalType": "address",
          "name": "from",
          "type": "address"
        },
        {
          "internalType": "address",
          "name": "to",
          "type": "address"
        },
        {
          "internalType": "uint256",
          "name": "tokenId",
          "type": "uint256"
        }
      ],
      "name": "transferFrom",
      "outputs": [],
      "stateMutability": "nonpayable",
      "type": "function"
    },
    {
      "inputs": [
        {
          "internalType": "address",
          "name": "newOwner",
          "type": "address"
        }
      ],
      "name": "transferOwnership",
      "outputs": [],
      "stateMutability": "nonpayable",
      "type": "function"
    }
  ],
  "bytecode": "0x608060405260016008556601c6bf526340006009553480156200002157600080fd5b506040516200318c3803806200318c8339818101604052810190620000479190620002d9565b336040518060400160405280601181526020017f426c7565547562655456204d6f6d656e740000000000000000000000000000008152506040518060400160405280600681526020017f4d4f4d454e5400000000000000000000000000000000000000000000000000008152508160009081620000c5919062000585565b508060019081620000d7919062000585565b505050600073ffffffffffffffffffffffffffffffffffffffff168173ffffffffffffffffffffffffffffffffffffffff16036200014f5760006040517f1e4fbdf70000000000000000000000000000000000000000000000000000000081526004016200014691906200067d565b60405180910390fd5b6200016081620001a960201b60201c565b5080600a60006101000a81548173ffffffffffffffffffffffffffffffffffffffff021916908373ffffffffffffffffffffffffffffffffffffffff160217905550506200069a565b6000600760009054906101000a900473ffffffffffffffffffffffffffffffffffffffff16905081600760006101000a81548173ffffffffffffffffffffffffffffffffffffffff021916908373ffffffffffffffffffffffffffffffffffffffff1602179055508173ffffffffffffffffffffffffffffffffffffffff168173ffffffffffffffffffffffffffffffffffffffff167f8be0079c531659141344cd1fd0a4f28419497f9722a3daafe3b4186f6b6457e060405160405180910390a35050565b600080fd5b600073ffffffffffffffffffffffffffffffffffffffff82169050919050565b6000620002a18262000274565b9050919050565b620002b38162000294565b8114620002bf57600080fd5b50565b600081519050620002d381620002a8565b92915050565b600060208284031215620002f257620002f16200026f565b5b60006200030284828501620002c2565b91505092915050565b600081519050919050565b7f4e487b7100000000000000000000000000000000000000000000000000000000600052604160045260246000fd5b7f4e487b7100000000000000000000000000000000000000000000000000000000600052602260045260246000fd5b600060028204905060018216806200038d57607f821691505b602082108103620003a357620003a262000345565b5b50919050565b60008190508160005260206000209050919050565b60006020601f8301049050919050565b600082821b905092915050565b6000600883026200040d7fffffffffffffffffffffffffffffffffffffffffffffffffffffffffffffffff82620003ce565b620004198683620003ce565b95508019841693508086168417925050509392505050565b6000819050919050565b6000819050919050565b600062000466620004606200045a8462000431565b6200043b565b62000431565b9050919050565b6000819050919050565b620004828362000445565b6200049a62000491826200046d565b848454620003db565b825550505050565b600090565b620004b1620004a2565b620004be81848462000477565b505050565b5b81811015620004e657620004da600082620004a7565b600181019050620004c4565b5050565b601f8211156200053557620004ff81620003a9565b6200050a84620003be565b810160208510156200051a578190505b620005326200052985620003be565b830182620004c3565b50505b505050565b600082821c905092915050565b60006200055a600019846008026200053a565b1980831691505092915050565b600062000575838362000547565b9150826002028217905092915050565b62000590826200030b565b67ffffffffffffffff811115620005ac57620005ab62000316565b5b620005b8825462000374565b620005c5828285620004ea565b600060209050601f831160018114620005fd5760008415620005e8578287015190505b620005f4858262000567565b86555062000664565b601f1984166200060d86620003a9565b60005b82811015620006375784890151825560018201915060208501945060208101905062000610565b8683101562000657578489015162000653601f89168262000547565b8355505b6001600288020188555050505b505050505050565b620006778162000294565b82525050565b60006020820190506200069460008301846200066c565b92915050565b612ae280620006aa6000396000f3fe6080604052600436106101405760003560e01c806370a08231116100b6578063b88d4fde1161006f578063b88d4fde14610448578063c87b56dd14610471578063d85d3d27146104ae578063e985e9c5146104ca578063f2fde38b14610507578063f4a0a5281461053057610140565b806370a082311461034c578063715018a6146103895780638da5cb5b146103a057806395d89b41146103cb578063a22cb465146103f6578063a3ff39b21461041f57610140565b806341d5b8031161010857806341d5b8031461023c57806342842e0e1461026557806361b8ce8c1461028e5780636352211e146102b957806363bd1d4a146102f65780636817c76c1461032157610140565b806301ffc9a71461014557806306fdde0314610182578063081812fc146101ad578063095ea7b3146101ea57806323b872dd14610213575b600080fd5b34801561015157600080fd5b5061016c60048036038101906101679190611e85565b610559565b6040516101799190611ecd565b60405180910390f35b34801561018e57600080fd5b506101976105ba565b6040516101a49190611f78565b60405180910390f35b3480156101b957600080fd5b506101d460048036038101906101cf9190611fd0565b61064c565b6040516101e1919061203e565b60405180910390f35b3480156101f657600080fd5b50610211600480360381019061020c9190612085565b610668565b005b34801561021f57600080fd5b5061023a600480360381019061023591906120c5565b61067e565b005b34801561024857600080fd5b50610263600480360381019061025e919061224d565b610780565b005b34801561027157600080fd5b5061028c600480360381019061028791906120c5565b6107bc565b005b34801561029a57600080fd5b506102a36107dc565b6040516102b091906122b8565b60405180910390f35b3480156102c557600080fd5b506102e060048036038101906102db9190611fd0565b6107e2565b6040516102ed919061203e565b60405180910390f35b34801561030257600080fd5b5061030b6107f4565b604051610318919061203e565b60405180910390f35b34801561032d57600080fd5b5061033661081a565b60405161034391906122b8565b60405180910390f35b34801561035857600080fd5b50610373600480360381019061036e91906122d3565b610820565b60405161038091906122b8565b60405180910390f35b34801561039557600080fd5b5061039e6108da565b005b3480156103ac57600080fd5b506103b56108ee565b6040516103c2919061203e565b60405180910390f35b3480156103d757600080fd5b506103e0610918565b6040516103ed9190611f78565b60405180910390f35b34801561040257600080fd5b5061041d6004803603810190610418919061232c565b6109aa565b005b34801561042b57600080fd5b50610446600480360381019061044191906122d3565b6109c0565b005b34801561045457600080fd5b5061046f600480360381019061046a919061240d565b610a0c565b005b34801561047d57600080fd5b5061049860048036038101906104939190611fd0565b610a31565b6040516104a59190611f78565b60405180910390f35b6104c860048036038101906104c39190612490565b610b44565b005b3480156104d657600080fd5b506104f160048036038101906104ec91906124d9565b610c7c565b6040516104fe9190611ecd565b60405180910390f35b34801561051357600080fd5b5061052e600480360381019061052991906122d3565b610d10565b005b34801561053c57600080fd5b5061055760048036038101906105529190611fd0565b610d96565b005b6000634906490660e01b7bffffffffffffffffffffffffffffffffffffffffffffffffffffffff1916827bffffffffffffffffffffffffffffffffffffffffffffffffffffffff191614806105b357506105b282610da8565b5b9050919050565b6060600080546105c990612548565b80601f01602080910402602001604051908101604052809291908181526020018280546105f590612548565b80156106425780601f1061061757610100808354040283529160200191610642565b820191906000526020600020905b81548152906001019060200180831161062557829003601f168201915b5050505050905090565b600061065782610e8a565b5061066182610f12565b9050919050565b61067a8282610675610f4f565b610f57565b5050565b600073ffffffffffffffffffffffffffffffffffffffff168273ffffffffffffffffffffffffffffffffffffffff16036106f05760006040517f64a0ae920000000000000000000000000000000000000000000000000000000081526004016106e7919061203e565b60405180910390fd5b600061070483836106ff610f4f565b610f69565b90508373ffffffffffffffffffffffffffffffffffffffff168173ffffffffffffffffffffffffffffffffffffffff161461077a578382826040517f64283d7b00000000000000000000000000000000000000000000000000000000815260040161077193929190612579565b60405180910390fd5b50505050565b610788611183565b60006008600081548092919061079d906125df565b9190505590506107ad838261120a565b6107b78183611228565b505050565b6107d783838360405180602001604052806000815250610a0c565b505050565b60085481565b60006107ed82610e8a565b9050919050565b600a60009054906101000a900473ffffffffffffffffffffffffffffffffffffffff1681565b60095481565b60008073ffffffffffffffffffffffffffffffffffffffff168273ffffffffffffffffffffffffffffffffffffffff16036108935760006040517f89c62b6400000000000000000000000000000000000000000000000000000000815260040161088a919061203e565b60405180910390fd5b600360008373ffffffffffffffffffffffffffffffffffffffff1673ffffffffffffffffffffffffffffffffffffffff168152602001908152602001600020549050919050565b6108e2611183565b6108ec6000611284565b565b6000600760009054906101000a900473ffffffffffffffffffffffffffffffffffffffff16905090565b60606001805461092790612548565b80601f016020809104026020016040519081016040528092919081815260200182805461095390612548565b80156109a05780601f10610975576101008083540402835291602001916109a0565b820191906000526020600020905b81548152906001019060200180831161098357829003601f168201915b5050505050905090565b6109bc6109b5610f4f565b838361134a565b5050565b6109c8611183565b80600a60006101000a81548173ffffffffffffffffffffffffffffffffffffffff021916908373ffffffffffffffffffffffffffffffffffffffff16021790555050565b610a1784848461067e565b610a2b610a22610f4f565b858585856114b9565b50505050565b6060610a3c82610e8a565b506000600660008481526020019081526020016000208054610a5d90612548565b80601f0160208091040260200160405190810160405280929190818152602001828054610a8990612548565b8015610ad65780601f10610aab57610100808354040283529160200191610ad6565b820191906000526020600020905b815481529060010190602001808311610ab957829003601f168201915b505050505090506000610ae761166a565b90506000815103610afc578192505050610b3f565b600082511115610b31578082604051602001610b19929190612663565b60405160208183030381529060405292505050610b3f565b610b3a84611681565b925050505b919050565b600954341015610b89576040517f08c379a0000000000000000000000000000000000000000000000000000000008152600401610b80906126d3565b60405180910390fd5b600060086000815480929190610b9e906125df565b919050559050610bae338261120a565b610bb88183611228565b600073ffffffffffffffffffffffffffffffffffffffff16600a60009054906101000a900473ffffffffffffffffffffffffffffffffffffffff1673ffffffffffffffffffffffffffffffffffffffff1614610c7857600a60009054906101000a900473ffffffffffffffffffffffffffffffffffffffff1673ffffffffffffffffffffffffffffffffffffffff166108fc479081150290604051600060405180830381858888f19350505050158015610c76573d6000803e3d6000fd5b505b5050565b6000600560008473ffffffffffffffffffffffffffffffffffffffff1673ffffffffffffffffffffffffffffffffffffffff16815260200190815260200160002060008373ffffffffffffffffffffffffffffffffffffffff1673ffffffffffffffffffffffffffffffffffffffff16815260200190815260200160002060009054906101000a900460ff16905092915050565b610d18611183565b600073ffffffffffffffffffffffffffffffffffffffff168173ffffffffffffffffffffffffffffffffffffffff1603610d8a5760006040517f1e4fbdf7000000000000000000000000000000000000000000000000000000008152600401610d81919061203e565b60405180910390fd5b610d9381611284565b50565b610d9e611183565b8060098190555050565b60007f80ac58cd000000000000000000000000000000000000000000000000000000007bffffffffffffffffffffffffffffffffffffffffffffffffffffffff1916827bffffffffffffffffffffffffffffffffffffffffffffffffffffffff19161480610e7357507f5b5e139f000000000000000000000000000000000000000000000000000000007bffffffffffffffffffffffffffffffffffffffffffffffffffffffff1916827bffffffffffffffffffffffffffffffffffffffffffffffffffffffff1916145b80610e835750610e82826116ea565b5b9050919050565b600080610e9683611754565b9050600073ffffffffffffffffffffffffffffffffffffffff168173ffffffffffffffffffffffffffffffffffffffff1603610f0957826040517f7e273289000000000000000000000000000000000000000000000000000000008152600401610f0091906122b8565b60405180910390fd5b80915050919050565b60006004600083815260200190815260200160002060009054906101000a900473ffffffffffffffffffffffffffffffffffffffff169050919050565b600033905090565b610f648383836001611791565b505050565b600080610f7584611754565b9050600073ffffffffffffffffffffffffffffffffffffffff168373ffffffffffffffffffffffffffffffffffffffff1614610fb757610fb6818486611956565b5b600073ffffffffffffffffffffffffffffffffffffffff168173ffffffffffffffffffffffffffffffffffffffff161461104857610ff9600085600080611791565b6001600360008373ffffffffffffffffffffffffffffffffffffffff1673ffffffffffffffffffffffffffffffffffffffff168152602001908152602001600020600082825403925050819055505b600073ffffffffffffffffffffffffffffffffffffffff168573ffffffffffffffffffffffffffffffffffffffff16146110cb576001600360008773ffffffffffffffffffffffffffffffffffffffff1673ffffffffffffffffffffffffffffffffffffffff168152602001908152602001600020600082825401925050819055505b846002600086815260200190815260200160002060006101000a81548173ffffffffffffffffffffffffffffffffffffffff021916908373ffffffffffffffffffffffffffffffffffffffff160217905550838573ffffffffffffffffffffffffffffffffffffffff168273ffffffffffffffffffffffffffffffffffffffff167fddf252ad1be2c89b69c2b068fc378daa952ba7f163c4a11628f55a4df523b3ef60405160405180910390a4809150509392505050565b61118b610f4f565b73ffffffffffffffffffffffffffffffffffffffff166111a96108ee565b73ffffffffffffffffffffffffffffffffffffffff1614611208576111cc610f4f565b6040517f118cdaa70000000000000000000000000000000000000000000000000000000081526004016111ff919061203e565b60405180910390fd5b565b611224828260405180602001604052806000815250611a1a565b5050565b80600660008481526020019081526020016000209081611248919061289f565b507ff8e1a15aba9398e019f0b49df1a4fde98ee17ae345cb5f6b5e2c27f5033e8ce78260405161127891906122b8565b60405180910390a15050565b6000600760009054906101000a900473ffffffffffffffffffffffffffffffffffffffff16905081600760006101000a81548173ffffffffffffffffffffffffffffffffffffffff021916908373ffffffffffffffffffffffffffffffffffffffff1602179055508173ffffffffffffffffffffffffffffffffffffffff168173ffffffffffffffffffffffffffffffffffffffff167f8be0079c531659141344cd1fd0a4f28419497f9722a3daafe3b4186f6b6457e060405160405180910390a35050565b600073ffffffffffffffffffffffffffffffffffffffff168273ffffffffffffffffffffffffffffffffffffffff16036113bb57816040517f5b08ba180000000000000000000000000000000000000000000000000000000081526004016113b2919061203e565b60405180910390fd5b80600560008573ffffffffffffffffffffffffffffffffffffffff1673ffffffffffffffffffffffffffffffffffffffff16815260200190815260200160002060008473ffffffffffffffffffffffffffffffffffffffff1673ffffffffffffffffffffffffffffffffffffffff16815260200190815260200160002060006101000a81548160ff0219169083151502179055508173ffffffffffffffffffffffffffffffffffffffff168373ffffffffffffffffffffffffffffffffffffffff167f17307eab39ab6107e8899845ad3d59bd9653f200f220920489ca2b5937696c31836040516114ac9190611ecd565b60405180910390a3505050565b60008373ffffffffffffffffffffffffffffffffffffffff163b1115611663578273ffffffffffffffffffffffffffffffffffffffff1663150b7a02868685856040518563ffffffff1660e01b815260040161151894939291906129c6565b6020604051808303816000875af192505050801561155457506040513d601f19601f820116820180604052508101906115519190612a27565b60015b6115d8573d8060008114611584576040519150601f19603f3d011682016040523d82523d6000602084013e611589565b606091505b5060008151036115d057836040517f64a0ae920000000000000000000000000000000000000000000000000000000081526004016115c7919061203e565b60405180910390fd5b805160208201fd5b63150b7a0260e01b7bffffffffffffffffffffffffffffffffffffffffffffffffffffffff1916817bffffffffffffffffffffffffffffffffffffffffffffffffffffffff19161461166157836040517f64a0ae92000000000000000000000000000000000000000000000000000000008152600401611658919061203e565b60405180910390fd5b505b5050505050565b606060405180602001604052806000815250905090565b606061168c82610e8a565b50600061169761166a565b905060008151116116b757604051806020016040528060008152506116e2565b806116c184611a3e565b6040516020016116d2929190612663565b6040516020818303038152906040525b915050919050565b60007f01ffc9a7000000000000000000000000000000000000000000000000000000007bffffffffffffffffffffffffffffffffffffffffffffffffffffffff1916827bffffffffffffffffffffffffffffffffffffffffffffffffffffffff1916149050919050565b60006002600083815260200190815260200160002060009054906101000a900473ffffffffffffffffffffffffffffffffffffffff169050919050565b80806117ca5750600073ffffffffffffffffffffffffffffffffffffffff168273ffffffffffffffffffffffffffffffffffffffff1614155b156118fe5760006117da84610e8a565b9050600073ffffffffffffffffffffffffffffffffffffffff168373ffffffffffffffffffffffffffffffffffffffff161415801561184557508273ffffffffffffffffffffffffffffffffffffffff168173ffffffffffffffffffffffffffffffffffffffff1614155b801561185857506118568184610c7c565b155b1561189a57826040517fa9fbf51f000000000000000000000000000000000000000000000000000000008152600401611891919061203e565b60405180910390fd5b81156118fc57838573ffffffffffffffffffffffffffffffffffffffff168273ffffffffffffffffffffffffffffffffffffffff167f8c5be1e5ebec7d5bd14f71427d1e84f3dd0314c0f7b2291e5b200ac8c7c3b92560405160405180910390a45b505b836004600085815260200190815260200160002060006101000a81548173ffffffffffffffffffffffffffffffffffffffff021916908373ffffffffffffffffffffffffffffffffffffffff16021790555050505050565b611961838383611b0c565b611a1557600073ffffffffffffffffffffffffffffffffffffffff168373ffffffffffffffffffffffffffffffffffffffff16036119d657806040517f7e2732890000000000000000000000000000000000000000000000000000000081526004016119cd91906122b8565b60405180910390fd5b81816040517f177e802f000000000000000000000000000000000000000000000000000000008152600401611a0c929190612a54565b60405180910390fd5b505050565b611a248383611bcd565b611a39611a2f610f4f565b60008585856114b9565b505050565b606060006001611a4d84611cc6565b01905060008167ffffffffffffffff811115611a6c57611a6b612122565b5b6040519080825280601f01601f191660200182016040528015611a9e5781602001600182028036833780820191505090505b509050600082602083010190505b600115611b01578080600190039150507f3031323334353637383961626364656600000000000000000000000000000000600a86061a8153600a8581611af557611af4612a7d565b5b04945060008503611aac575b819350505050919050565b60008073ffffffffffffffffffffffffffffffffffffffff168373ffffffffffffffffffffffffffffffffffffffff1614158015611bc457508273ffffffffffffffffffffffffffffffffffffffff168473ffffffffffffffffffffffffffffffffffffffff161480611b855750611b848484610c7c565b5b80611bc357508273ffffffffffffffffffffffffffffffffffffffff16611bab83610f12565b73ffffffffffffffffffffffffffffffffffffffff16145b5b90509392505050565b600073ffffffffffffffffffffffffffffffffffffffff168273ffffffffffffffffffffffffffffffffffffffff1603611c3f5760006040517f64a0ae92000000000000000000000000000000000000000000000000000000008152600401611c36919061203e565b60405180910390fd5b6000611c4d83836000610f69565b9050600073ffffffffffffffffffffffffffffffffffffffff168173ffffffffffffffffffffffffffffffffffffffff1614611cc15760006040517f73c6ac6e000000000000000000000000000000000000000000000000000000008152600401611cb8919061203e565b60405180910390fd5b505050565b600080600090507a184f03e93ff9f4daa797ed6e38ed64bf6a1f0100000000000000008310611d24577a184f03e93ff9f4daa797ed6e38ed64bf6a1f0100000000000000008381611d1a57611d19612a7d565b5b0492506040810190505b6d04ee2d6d415b85acef81000000008310611d61576d04ee2d6d415b85acef81000000008381611d5757611d56612a7d565b5b0492506020810190505b662386f26fc100008310611d9057662386f26fc100008381611d8657611d85612a7d565b5b0492506010810190505b6305f5e1008310611db9576305f5e1008381611daf57611dae612a7d565b5b0492506008810190505b6127108310611dde576127108381611dd457611dd3612a7d565b5b0492506004810190505b60648310611e015760648381611df757611df6612a7d565b5b0492506002810190505b600a8310611e10576001810190505b80915050919050565b6000604051905090565b600080fd5b600080fd5b60007fffffffff0000000000000000000000000000000000000000000000000000000082169050919050565b611e6281611e2d565b8114611e6d57600080fd5b50565b600081359050611e7f81611e59565b92915050565b600060208284031215611e9b57611e9a611e23565b5b6000611ea984828501611e70565b91505092915050565b60008115159050919050565b611ec781611eb2565b82525050565b6000602082019050611ee26000830184611ebe565b92915050565b600081519050919050565b600082825260208201905092915050565b60005b83811015611f22578082015181840152602081019050611f07565b60008484015250505050565b6000601f19601f8301169050919050565b6000611f4a82611ee8565b611f548185611ef3565b9350611f64818560208601611f04565b611f6d81611f2e565b840191505092915050565b60006020820190508181036000830152611f928184611f3f565b905092915050565b6000819050919050565b611fad81611f9a565b8114611fb857600080fd5b50565b600081359050611fca81611fa4565b92915050565b600060208284031215611fe657611fe5611e23565b5b6000611ff484828501611fbb565b91505092915050565b600073ffffffffffffffffffffffffffffffffffffffff82169050919050565b600061202882611ffd565b9050919050565b6120388161201d565b82525050565b6000602082019050612053600083018461202f565b92915050565b6120628161201d565b811461206d57600080fd5b50565b60008135905061207f81612059565b92915050565b6000806040838503121561209c5761209b611e23565b5b60006120aa85828601612070565b92505060206120bb85828601611fbb565b9150509250929050565b6000806000606084860312156120de576120dd611e23565b5b60006120ec86828701612070565b93505060206120fd86828701612070565b925050604061210e86828701611fbb565b9150509250925092565b600080fd5b600080fd5b7f4e487b7100000000000000000000000000000000000000000000000000000000600052604160045260246000fd5b61215a82611f2e565b810181811067ffffffffffffffff8211171561217957612178612122565b5b80604052505050565b600061218c611e19565b90506121988282612151565b919050565b600067ffffffffffffffff8211156121b8576121b7612122565b5b6121c182611f2e565b9050602081019050919050565b82818337600083830152505050565b60006121f06121eb8461219d565b612182565b90508281526020810184848401111561220c5761220b61211d565b5b6122178482856121ce565b509392505050565b600082601f83011261223457612233612118565b5b81356122448482602086016121dd565b91505092915050565b6000806040838503121561226457612263611e23565b5b600061227285828601612070565b925050602083013567ffffffffffffffff81111561229357612292611e28565b5b61229f8582860161221f565b9150509250929050565b6122b281611f9a565b82525050565b60006020820190506122cd60008301846122a9565b92915050565b6000602082840312156122e9576122e8611e23565b5b60006122f784828501612070565b91505092915050565b61230981611eb2565b811461231457600080fd5b50565b60008135905061232681612300565b92915050565b6000806040838503121561234357612342611e23565b5b600061235185828601612070565b925050602061236285828601612317565b9150509250929050565b600067ffffffffffffffff82111561238757612386612122565b5b61239082611f2e565b9050602081019050919050565b60006123b06123ab8461236c565b612182565b9050828152602081018484840111156123cc576123cb61211d565b5b6123d78482856121ce565b509392505050565b600082601f8301126123f4576123f3612118565b5b813561240484826020860161239d565b91505092915050565b6000806000806080858703121561242757612426611e23565b5b600061243587828801612070565b945050602061244687828801612070565b935050604061245787828801611fbb565b925050606085013567ffffffffffffffff81111561247857612477611e28565b5b612484878288016123df565b91505092959194509250565b6000602082840312156124a6576124a5611e23565b5b600082013567ffffffffffffffff8111156124c4576124c3611e28565b5b6124d08482850161221f565b91505092915050565b600080604083850312156124f0576124ef611e23565b5b60006124fe85828601612070565b925050602061250f85828601612070565b9150509250929050565b7f4e487b7100000000000000000000000000000000000000000000000000000000600052602260045260246000fd5b6000600282049050600182168061256057607f821691505b60208210810361257357612572612519565b5b50919050565b600060608201905061258e600083018661202f565b61259b60208301856122a9565b6125a8604083018461202f565b949350505050565b7f4e487b7100000000000000000000000000000000000000000000000000000000600052601160045260246000fd5b60006125ea82611f9a565b91507fffffffffffffffffffffffffffffffffffffffffffffffffffffffffffffffff820361261c5761261b6125b0565b5b600182019050919050565b600081905092915050565b600061263d82611ee8565b6126478185612627565b9350612657818560208601611f04565b80840191505092915050565b600061266f8285612632565b915061267b8284612632565b91508190509392505050565b7f506179206d696e74507269636500000000000000000000000000000000000000600082015250565b60006126bd600d83611ef3565b91506126c882612687565b602082019050919050565b600060208201905081810360008301526126ec816126b0565b9050919050565b60008190508160005260206000209050919050565b60006020601f8301049050919050565b600082821b905092915050565b6000600883026127557fffffffffffffffffffffffffffffffffffffffffffffffffffffffffffffffff82612718565b61275f8683612718565b95508019841693508086168417925050509392505050565b6000819050919050565b600061279c61279761279284611f9a565b612777565b611f9a565b9050919050565b6000819050919050565b6127b683612781565b6127ca6127c2826127a3565b848454612725565b825550505050565b600090565b6127df6127d2565b6127ea8184846127ad565b505050565b5b8181101561280e576128036000826127d7565b6001810190506127f0565b5050565b601f82111561285357612824816126f3565b61282d84612708565b8101602085101561283c578190505b61285061284885612708565b8301826127ef565b50505b505050565b600082821c905092915050565b600061287660001984600802612858565b1980831691505092915050565b600061288f8383612865565b9150826002028217905092915050565b6128a882611ee8565b67ffffffffffffffff8111156128c1576128c0612122565b5b6128cb8254612548565b6128d6828285612812565b600060209050601f83116001811461290957600084156128f7578287015190505b6129018582612883565b865550612969565b601f198416612917866126f3565b60005b8281101561293f5784890151825560018201915060208501945060208101905061291a565b8683101561295c5784890151612958601f891682612865565b8355505b6001600288020188555050505b505050505050565b600081519050919050565b600082825260208201905092915050565b600061299882612971565b6129a2818561297c565b93506129b2818560208601611f04565b6129bb81611f2e565b840191505092915050565b60006080820190506129db600083018761202f565b6129e8602083018661202f565b6129f560408301856122a9565b8181036060830152612a07818461298d565b905095945050505050565b600081519050612a2181611e59565b92915050565b600060208284031215612a3d57612a3c611e23565b5b6000612a4b84828501612a12565b91505092915050565b6000604082019050612a69600083018561202f565b612a7660208301846122a9565b9392505050565b7f4e487b7100000000000000000000000000000000000000000000000000000000600052601260045260246000fdfea2646970667358221220dce8dde18c8487fb3aa056f6160460638add6859dae93cc4b191b398b749929d64736f6c63430008180033",
  "linkReferences": {},
  "deployedLinkReferences": {}
}